{
  "contractName": "LandRegistry",
  "abi": [
    {
      "inputs": [],
      "stateMutability": "nonpayable",
      "type": "constructor"
    },
    {
      "anonymous": false,
      "inputs": [
        {
          "indexed": true,
          "internalType": "address",
          "name": "by",
          "type": "address"
        }
      ],
      "name": "ContractPaused",
      "type": "event"
    },
    {
      "anonymous": false,
      "inputs": [
        {
          "indexed": true,
          "internalType": "address",
          "name": "by",
          "type": "address"
        }
      ],
      "name": "ContractUnpaused",
      "type": "event"
    },
    {
      "anonymous": false,
      "inputs": [
        {
          "indexed": true,
          "internalType": "address",
          "name": "official",
          "type": "address"
        }
      ],
      "name": "GovernmentOfficialAdded",
      "type": "event"
    },
    {
      "anonymous": false,
      "inputs": [
        {
          "indexed": true,
          "internalType": "address",
          "name": "official",
          "type": "address"
        }
      ],
      "name": "GovernmentOfficialRemoved",
      "type": "event"
    },
    {
      "anonymous": false,
      "inputs": [
        {
          "indexed": true,
          "internalType": "uint256",
          "name": "landId",
          "type": "uint256"
        },
        {
          "indexed": true,
          "internalType": "address",
          "name": "owner",
          "type": "address"
        },
        {
          "indexed": false,
          "internalType": "enum LandRegistry.ApprovalStatus",
          "name": "status",
          "type": "uint8"
        }
      ],
      "name": "LandApproved",
      "type": "event"
    },
    {
      "anonymous": false,
      "inputs": [
        {
          "indexed": true,
          "internalType": "uint256",
          "name": "landId",
          "type": "uint256"
        },
        {
          "indexed": true,
          "internalType": "address",
          "name": "owner",
          "type": "address"
        },
        {
          "indexed": false,
          "internalType": "string",
          "name": "landAddress",
          "type": "string"
        },
        {
          "indexed": false,
          "internalType": "uint256",
          "name": "price",
          "type": "uint256"
        }
      ],
      "name": "LandRegistered",
      "type": "event"
    },
    {
      "anonymous": false,
      "inputs": [
        {
          "indexed": true,
          "internalType": "uint256",
          "name": "landId",
          "type": "uint256"
        },
        {
          "indexed": true,
          "internalType": "address",
          "name": "owner",
          "type": "address"
        }
      ],
      "name": "LandRejected",
      "type": "event"
    },
    {
      "anonymous": false,
      "inputs": [
        {
          "indexed": true,
          "internalType": "uint256",
          "name": "landId",
          "type": "uint256"
        },
        {
          "indexed": true,
          "internalType": "address",
          "name": "requester",
          "type": "address"
        }
      ],
      "name": "LandRequested",
      "type": "event"
    },
    {
      "anonymous": false,
      "inputs": [
        {
          "indexed": true,
          "internalType": "uint256",
          "name": "landId",
          "type": "uint256"
        },
        {
          "indexed": true,
          "internalType": "address",
          "name": "from",
          "type": "address"
        },
        {
          "indexed": true,
          "internalType": "address",
          "name": "to",
          "type": "address"
        },
        {
          "indexed": false,
          "internalType": "uint256",
          "name": "price",
          "type": "uint256"
        }
      ],
      "name": "LandSold",
      "type": "event"
    },
    {
      "anonymous": false,
      "inputs": [
        {
          "indexed": true,
          "internalType": "uint256",
          "name": "landId",
          "type": "uint256"
        },
        {
          "indexed": true,
          "internalType": "address",
          "name": "owner",
          "type": "address"
        }
      ],
      "name": "LandUpdated",
      "type": "event"
    },
    {
      "anonymous": false,
      "inputs": [
        {
          "indexed": true,
          "internalType": "address",
          "name": "previousOwner",
          "type": "address"
        },
        {
          "indexed": true,
          "internalType": "address",
          "name": "newOwner",
          "type": "address"
        }
      ],
      "name": "OwnershipTransferred",
      "type": "event"
    },
    {
      "anonymous": false,
      "inputs": [
        {
          "indexed": false,
          "internalType": "address",
          "name": "account",
          "type": "address"
        }
      ],
      "name": "Paused",
      "type": "event"
    },
    {
      "anonymous": false,
      "inputs": [
        {
          "indexed": false,
          "internalType": "address",
          "name": "account",
          "type": "address"
        }
      ],
      "name": "Unpaused",
      "type": "event"
    },
    {
      "anonymous": false,
      "inputs": [
        {
          "indexed": true,
          "internalType": "address",
          "name": "userAddress",
          "type": "address"
        }
      ],
      "name": "UserDeactivated",
      "type": "event"
    },
    {
      "anonymous": false,
      "inputs": [
        {
          "indexed": true,
          "internalType": "address",
          "name": "userAddress",
          "type": "address"
        },
        {
          "indexed": false,
          "internalType": "string",
          "name": "name",
          "type": "string"
        },
        {
          "indexed": false,
          "internalType": "string",
          "name": "email",
          "type": "string"
        }
      ],
      "name": "UserRegistered",
      "type": "event"
    },
    {
      "inputs": [
        {
          "internalType": "address",
          "name": "",
          "type": "address"
        }
      ],
      "name": "governmentOfficials",
      "outputs": [
        {
          "internalType": "bool",
          "name": "",
          "type": "bool"
        }
      ],
      "stateMutability": "view",
      "type": "function",
      "constant": true
    },
    {
      "inputs": [
        {
          "internalType": "uint256",
          "name": "",
          "type": "uint256"
        }
      ],
      "name": "landAssets",
      "outputs": [
        {
          "internalType": "uint256",
          "name": "",
          "type": "uint256"
        }
      ],
      "stateMutability": "view",
      "type": "function",
      "constant": true
    },
    {
      "inputs": [
        {
          "internalType": "uint256",
          "name": "",
          "type": "uint256"
        }
      ],
      "name": "lands",
      "outputs": [
        {
          "internalType": "address payable",
          "name": "owner",
          "type": "address"
        },
        {
          "internalType": "string",
          "name": "ipfsHash",
          "type": "string"
        },
        {
          "internalType": "string",
          "name": "landAddress",
          "type": "string"
        },
        {
          "internalType": "uint256",
          "name": "price",
          "type": "uint256"
        },
        {
          "internalType": "uint256",
          "name": "landId",
          "type": "uint256"
        },
        {
          "internalType": "enum LandRegistry.ApprovalStatus",
          "name": "governmentApproval",
          "type": "uint8"
        },
        {
          "internalType": "enum LandRegistry.AvailabilityStatus",
          "name": "availability",
          "type": "uint8"
        },
        {
          "internalType": "address",
          "name": "requester",
          "type": "address"
        },
        {
          "internalType": "enum LandRegistry.RequestStatus",
          "name": "requestStatus",
          "type": "uint8"
        },
        {
          "internalType": "uint256",
          "name": "registrationTime",
          "type": "uint256"
        },
        {
          "internalType": "uint256",
          "name": "lastUpdated",
          "type": "uint256"
        },
        {
          "internalType": "bool",
          "name": "exists",
          "type": "bool"
        },
        {
          "internalType": "string",
          "name": "description",
          "type": "string"
        },
        {
          "internalType": "uint256",
          "name": "area",
          "type": "uint256"
        }
      ],
      "stateMutability": "view",
      "type": "function",
      "constant": true
    },
    {
      "inputs": [],
      "name": "owner",
      "outputs": [
        {
          "internalType": "address",
          "name": "",
          "type": "address"
        }
      ],
      "stateMutability": "view",
      "type": "function",
      "constant": true
    },
    {
      "inputs": [],
      "name": "paused",
      "outputs": [
        {
          "internalType": "bool",
          "name": "",
          "type": "bool"
        }
      ],
      "stateMutability": "view",
      "type": "function",
      "constant": true
    },
    {
      "inputs": [
        {
          "internalType": "address",
          "name": "",
          "type": "address"
        }
      ],
      "name": "registeredUsers",
      "outputs": [
        {
          "internalType": "bool",
          "name": "",
          "type": "bool"
        }
      ],
      "stateMutability": "view",
      "type": "function",
      "constant": true
    },
    {
      "inputs": [],
      "name": "renounceOwnership",
      "outputs": [],
      "stateMutability": "nonpayable",
      "type": "function"
    },
    {
      "inputs": [
        {
          "internalType": "address",
          "name": "newOwner",
          "type": "address"
        }
      ],
      "name": "transferOwnership",
      "outputs": [],
      "stateMutability": "nonpayable",
      "type": "function"
    },
    {
      "inputs": [
        {
          "internalType": "string",
          "name": "",
          "type": "string"
        }
      ],
      "name": "usedEmails",
      "outputs": [
        {
          "internalType": "bool",
          "name": "",
          "type": "bool"
        }
      ],
      "stateMutability": "view",
      "type": "function",
      "constant": true
    },
    {
      "inputs": [
        {
          "internalType": "string",
          "name": "",
          "type": "string"
        }
      ],
      "name": "usedLandAddresses",
      "outputs": [
        {
          "internalType": "bool",
          "name": "",
          "type": "bool"
        }
      ],
      "stateMutability": "view",
      "type": "function",
      "constant": true
    },
    {
      "inputs": [
        {
          "internalType": "uint256",
          "name": "",
          "type": "uint256"
        }
      ],
      "name": "userAddresses",
      "outputs": [
        {
          "internalType": "address",
          "name": "",
          "type": "address"
        }
      ],
      "stateMutability": "view",
      "type": "function",
      "constant": true
    },
    {
      "inputs": [
        {
          "internalType": "address",
          "name": "",
          "type": "address"
        }
      ],
      "name": "userProfiles",
      "outputs": [
        {
          "internalType": "uint256",
          "name": "totalLands",
          "type": "uint256"
        }
      ],
      "stateMutability": "view",
      "type": "function",
      "constant": true
    },
    {
      "inputs": [
        {
          "internalType": "address",
          "name": "",
          "type": "address"
        }
      ],
      "name": "users",
      "outputs": [
        {
          "internalType": "address",
          "name": "userAddress",
          "type": "address"
        },
        {
          "internalType": "string",
          "name": "name",
          "type": "string"
        },
        {
          "internalType": "string",
          "name": "contact",
          "type": "string"
        },
        {
          "internalType": "string",
          "name": "email",
          "type": "string"
        },
        {
          "internalType": "string",
          "name": "postalCode",
          "type": "string"
        },
        {
          "internalType": "string",
          "name": "city",
          "type": "string"
        },
        {
          "internalType": "bool",
          "name": "exists",
          "type": "bool"
        },
        {
          "internalType": "uint256",
          "name": "registrationTime",
          "type": "uint256"
        },
        {
          "internalType": "bool",
          "name": "isActive",
          "type": "bool"
        }
      ],
      "stateMutability": "view",
      "type": "function",
      "constant": true
    },
    {
      "inputs": [
        {
          "internalType": "address",
          "name": "_official",
          "type": "address"
        }
      ],
      "name": "addGovernmentOfficial",
      "outputs": [],
      "stateMutability": "nonpayable",
      "type": "function"
    },
    {
      "inputs": [
        {
          "internalType": "address",
          "name": "_official",
          "type": "address"
        }
      ],
      "name": "removeGovernmentOfficial",
      "outputs": [],
      "stateMutability": "nonpayable",
      "type": "function"
    },
    {
      "inputs": [
        {
          "internalType": "address",
          "name": "_official",
          "type": "address"
        }
      ],
      "name": "isGovernmentOfficial",
      "outputs": [
        {
          "internalType": "bool",
          "name": "",
          "type": "bool"
        }
      ],
      "stateMutability": "view",
      "type": "function",
      "constant": true
    },
    {
      "inputs": [
        {
          "internalType": "string",
          "name": "_name",
          "type": "string"
        },
        {
          "internalType": "string",
          "name": "_contact",
          "type": "string"
        },
        {
          "internalType": "string",
          "name": "_email",
          "type": "string"
        },
        {
          "internalType": "string",
          "name": "_postalCode",
          "type": "string"
        },
        {
          "internalType": "string",
          "name": "_city",
          "type": "string"
        }
      ],
      "name": "registerUser",
      "outputs": [],
      "stateMutability": "nonpayable",
      "type": "function"
    },
    {
      "inputs": [
        {
          "internalType": "address",
          "name": "_userAddress",
          "type": "address"
        }
      ],
      "name": "deactivateUser",
      "outputs": [],
      "stateMutability": "nonpayable",
      "type": "function"
    },
    {
      "inputs": [
        {
          "internalType": "address",
          "name": "_userAddress",
          "type": "address"
        }
      ],
      "name": "reactivateUser",
      "outputs": [],
      "stateMutability": "nonpayable",
      "type": "function"
    },
    {
      "inputs": [
        {
          "internalType": "address",
          "name": "_userAddress",
          "type": "address"
        }
      ],
      "name": "getUser",
      "outputs": [
        {
          "components": [
            {
              "internalType": "address",
              "name": "userAddress",
              "type": "address"
            },
            {
              "internalType": "string",
              "name": "name",
              "type": "string"
            },
            {
              "internalType": "string",
              "name": "contact",
              "type": "string"
            },
            {
              "internalType": "string",
              "name": "email",
              "type": "string"
            },
            {
              "internalType": "string",
              "name": "postalCode",
              "type": "string"
            },
            {
              "internalType": "string",
              "name": "city",
              "type": "string"
            },
            {
              "internalType": "bool",
              "name": "exists",
              "type": "bool"
            },
            {
              "internalType": "uint256",
              "name": "registrationTime",
              "type": "uint256"
            },
            {
              "internalType": "bool",
              "name": "isActive",
              "type": "bool"
            }
          ],
          "internalType": "struct LandRegistry.User",
          "name": "",
          "type": "tuple"
        }
      ],
      "stateMutability": "view",
      "type": "function",
      "constant": true
    },
    {
      "inputs": [
        {
          "internalType": "string",
          "name": "_ipfsHash",
          "type": "string"
        },
        {
          "internalType": "string",
          "name": "_landAddress",
          "type": "string"
        },
        {
          "internalType": "uint256",
          "name": "_price",
          "type": "uint256"
        },
        {
          "internalType": "string",
          "name": "_description",
          "type": "string"
        },
        {
          "internalType": "uint256",
          "name": "_area",
          "type": "uint256"
        }
      ],
      "name": "registerLand",
      "outputs": [
        {
          "internalType": "uint256",
          "name": "",
          "type": "uint256"
        }
      ],
      "stateMutability": "nonpayable",
      "type": "function"
    },
    {
      "inputs": [
        {
          "internalType": "uint256",
          "name": "_landId",
          "type": "uint256"
        },
        {
          "internalType": "uint256",
          "name": "_newPrice",
          "type": "uint256"
        },
        {
          "internalType": "string",
          "name": "_newDescription",
          "type": "string"
        }
      ],
      "name": "updateLandDetails",
      "outputs": [],
      "stateMutability": "nonpayable",
      "type": "function"
    },
    {
      "inputs": [
        {
          "internalType": "uint256",
          "name": "_landId",
          "type": "uint256"
        }
      ],
      "name": "getLandDetails",
      "outputs": [
        {
          "components": [
            {
              "internalType": "address payable",
              "name": "owner",
              "type": "address"
            },
            {
              "internalType": "string",
              "name": "ipfsHash",
              "type": "string"
            },
            {
              "internalType": "string",
              "name": "landAddress",
              "type": "string"
            },
            {
              "internalType": "uint256",
              "name": "price",
              "type": "uint256"
            },
            {
              "internalType": "uint256",
              "name": "landId",
              "type": "uint256"
            },
            {
              "internalType": "enum LandRegistry.ApprovalStatus",
              "name": "governmentApproval",
              "type": "uint8"
            },
            {
              "internalType": "enum LandRegistry.AvailabilityStatus",
              "name": "availability",
              "type": "uint8"
            },
            {
              "internalType": "address",
              "name": "requester",
              "type": "address"
            },
            {
              "internalType": "enum LandRegistry.RequestStatus",
              "name": "requestStatus",
              "type": "uint8"
            },
            {
              "internalType": "uint256",
              "name": "registrationTime",
              "type": "uint256"
            },
            {
              "internalType": "uint256",
              "name": "lastUpdated",
              "type": "uint256"
            },
            {
              "internalType": "bool",
              "name": "exists",
              "type": "bool"
            },
            {
              "internalType": "string",
              "name": "description",
              "type": "string"
            },
            {
              "internalType": "uint256",
              "name": "area",
              "type": "uint256"
            }
          ],
          "internalType": "struct LandRegistry.LandDetails",
          "name": "",
          "type": "tuple"
        }
      ],
      "stateMutability": "view",
      "type": "function",
      "constant": true
    },
    {
      "inputs": [
        {
          "internalType": "address",
          "name": "_userAddress",
          "type": "address"
        }
      ],
      "name": "getUserAssets",
      "outputs": [
        {
          "internalType": "uint256[]",
          "name": "",
          "type": "uint256[]"
        }
      ],
      "stateMutability": "view",
      "type": "function",
      "constant": true
    },
    {
      "inputs": [],
      "name": "getAllLands",
      "outputs": [
        {
          "internalType": "uint256[]",
          "name": "",
          "type": "uint256[]"
        }
      ],
      "stateMutability": "view",
      "type": "function",
      "constant": true
    },
    {
      "inputs": [
        {
          "internalType": "uint256",
          "name": "_landId",
          "type": "uint256"
        },
        {
          "internalType": "enum LandRegistry.ApprovalStatus",
          "name": "_approvalStatus",
          "type": "uint8"
        }
      ],
      "name": "approveLand",
      "outputs": [],
      "stateMutability": "nonpayable",
      "type": "function"
    },
    {
      "inputs": [
        {
          "internalType": "uint256[]",
          "name": "_landIds",
          "type": "uint256[]"
        },
        {
          "internalType": "enum LandRegistry.ApprovalStatus",
          "name": "_approvalStatus",
          "type": "uint8"
        }
      ],
      "name": "batchApproveLands",
      "outputs": [],
      "stateMutability": "nonpayable",
      "type": "function"
    },
    {
      "inputs": [
        {
          "internalType": "uint256",
          "name": "_landId",
          "type": "uint256"
        }
      ],
      "name": "requestLand",
      "outputs": [],
      "stateMutability": "nonpayable",
      "type": "function"
    },
    {
      "inputs": [
        {
          "internalType": "uint256",
          "name": "_landId",
          "type": "uint256"
        },
        {
          "internalType": "enum LandRegistry.RequestStatus",
          "name": "_status",
          "type": "uint8"
        }
      ],
      "name": "processLandRequest",
      "outputs": [],
      "stateMutability": "nonpayable",
      "type": "function"
    },
    {
      "inputs": [
        {
          "internalType": "uint256",
          "name": "_landId",
          "type": "uint256"
        }
      ],
      "name": "cancelLandRequest",
      "outputs": [],
      "stateMutability": "nonpayable",
      "type": "function"
    },
    {
      "inputs": [
        {
          "internalType": "uint256",
          "name": "_landId",
          "type": "uint256"
        }
      ],
      "name": "purchaseLand",
      "outputs": [],
      "stateMutability": "payable",
      "type": "function",
      "payable": true
    },
    {
      "inputs": [],
      "name": "pause",
      "outputs": [],
      "stateMutability": "nonpayable",
      "type": "function"
    },
    {
      "inputs": [],
      "name": "unpause",
      "outputs": [],
      "stateMutability": "nonpayable",
      "type": "function"
    },
    {
      "inputs": [],
      "name": "getLandCount",
      "outputs": [
        {
          "internalType": "uint256",
          "name": "",
          "type": "uint256"
        }
      ],
      "stateMutability": "view",
      "type": "function",
      "constant": true
    },
    {
      "inputs": [],
      "name": "getUserCount",
      "outputs": [
        {
          "internalType": "uint256",
          "name": "",
          "type": "uint256"
        }
      ],
      "stateMutability": "view",
      "type": "function",
      "constant": true
    },
    {
      "inputs": [
        {
          "internalType": "address",
          "name": "_owner",
          "type": "address"
        }
      ],
      "name": "getLandsByOwner",
      "outputs": [
        {
          "internalType": "uint256[]",
          "name": "",
          "type": "uint256[]"
        }
      ],
      "stateMutability": "view",
      "type": "function",
      "constant": true
    },
    {
      "inputs": [],
      "name": "getAvailableLands",
      "outputs": [
        {
          "internalType": "uint256[]",
          "name": "",
          "type": "uint256[]"
        }
      ],
      "stateMutability": "view",
      "type": "function",
      "constant": true
    },
    {
      "inputs": [],
      "name": "getPendingApprovalLands",
      "outputs": [
        {
          "internalType": "uint256[]",
          "name": "",
          "type": "uint256[]"
        }
      ],
      "stateMutability": "view",
      "type": "function",
      "constant": true
    },
    {
      "inputs": [
        {
          "internalType": "address",
          "name": "_user",
          "type": "address"
        }
      ],
      "name": "isUserRegistered",
      "outputs": [
        {
          "internalType": "bool",
          "name": "",
          "type": "bool"
        }
      ],
      "stateMutability": "view",
      "type": "function",
      "constant": true
    },
    {
      "inputs": [
        {
          "internalType": "uint256",
          "name": "_landId",
          "type": "uint256"
        }
      ],
      "name": "getLandStatus",
      "outputs": [
        {
          "internalType": "enum LandRegistry.ApprovalStatus",
          "name": "governmentApproval",
          "type": "uint8"
        },
        {
          "internalType": "enum LandRegistry.AvailabilityStatus",
          "name": "availability",
          "type": "uint8"
        },
        {
          "internalType": "enum LandRegistry.RequestStatus",
          "name": "requestStatus",
          "type": "uint8"
        }
      ],
      "stateMutability": "view",
      "type": "function",
      "constant": true
    },
    {
      "inputs": [],
      "name": "emergencyWithdraw",
      "outputs": [],
      "stateMutability": "nonpayable",
      "type": "function"
    },
    {
      "inputs": [],
      "name": "getContractBalance",
      "outputs": [
        {
          "internalType": "uint256",
          "name": "",
          "type": "uint256"
        }
      ],
      "stateMutability": "view",
      "type": "function",
      "constant": true
    }
  ],
  "bytecode": "0x6080806040523461007b5760008054336001600160a01b0319821681178355916001600160a01b03909116907f8be0079c531659141344cd1fd0a4f28419497f9722a3daafe3b4186f6b6457e09080a36001805560ff1960025416600255600160035401600355600160045401600455613d3290816100818239f35b600080fdfe6080604052600436101561001257600080fd5b60003560e01c806304835426146135565780630e50cee514613513578063125293551461344657806316221b371461330f578063163f7522146132b15780631645c106146131785780631a47767b146130d05780632e3f84ec14610560578063332d56d71461308f578063382357a414612fc85780633c280ca514612f085780633f4ba83a14612e4e578063455b9d2314611e8357806348a9e36514612e005780634f66b0f7146126a3578063502c9bd5146126615780635c975abb1461263e5780635ceaa7691461261357806365c2fa3e146125dc5780636f77926b146124005780636f9fb98a146123e4578063715018a61461238b578063717c381414612121578063747ecbba14611e88578063765ff06114611e835780638009d5d714611a1057806381a294571461198a5780638456cb591461190a578063861f0509146116aa5780638d61a156146115975780638da5cb5b1461156e578063a87430ba14611466578063ac9f0a4014610a89578063b5cb15f714610a6b578063b7b6e543146109e0578063c53c08591461097f578063cc9dd0ed1461078d578063db2e21bc146106d6578063e261f1e5146105a3578063e5c3bf5714610560578063f2fde38b1461049a5763fe0cb7dc146101ea57600080fd5b346104955760203660031901126104955760043560006101a060405161020f816136a4565b82815260606020820152606060408201528260608201528260808201528260a08201528260c08201528260e0820152826101008201528261012082015282610140820152826101608201526060610180820152015280600052600860205261028160ff60086040600020015416613c44565b600052600860205260406000206040519061029b826136a4565b80546001600160a01b031682526102b460018201613894565b60208301526102c560028201613894565b60408301526003810154606083015260048101546080830152600581015490600360ff8316101561047f5760ff8281600a941660a086015261030b828260081c166135e3565b600881901c821660c0860152601081901c6001600160a01b031660e086015261033960b082901c83166135e3565b60b01c166101008401526006810154610120840152600781015461014084015260ff600882015416151561016084015261037560098201613894565b61018084015201546101a082015260405180916020825260018060a01b0381511660208301526101a06104726103d56103bf60208501516101c060408801526101e087019061381e565b6040850151868203601f1901606088015261381e565b60608401516080860152608084015160a08601526103fb60a085015160c08701906135d6565b60c0840151610409816135e3565b60e086015260018060a01b0360e085015116610100860152610100840151610430816135e3565b6101208601526101208401516101408601526101408401516101608601526101608401511515610180860152610180840151601f19868303018487015261381e565b9101516101c08301520390f35b634e487b7160e01b600052602160045260246000fd5b600080fd5b34610495576020366003190112610495576004356001600160a01b0381811691829003610495576104c961393a565b811561050c57600054826001600160601b0360a01b821617600055167f8be0079c531659141344cd1fd0a4f28419497f9722a3daafe3b4186f6b6457e0600080a3005b60405162461bcd60e51b815260206004820152602660248201527f4f776e61626c653a206e6577206f776e657220697320746865207a65726f206160448201526564647265737360d01b6064820152608490fd5b34610495576020366003190112610495576004356001600160a01b0381169081900361049557600052600a602052602060ff604060002054166040519015158152f35b3461049557602036600319011261049557600435600090815260086020526040902080546001600160a01b03908116906105df60018401613894565b926105ec60028201613894565b916003820154906004830154906005840154600685015490600786015492600887015460ff16946009880161062090613894565b97600a0154986040519b8c9b8c528b6101c06020819201528c016106439161381e565b8b810360408d01526106549161381e565b9660608b015260808a015260a0890160ff831690610671916135d6565b8160081c60ff16610681816135e3565b60c08a01528160101c1660e089015260b01c60ff1661069f816135e3565b61010088015261012087015261014086015215156101608501528381036101808501526106cb9161381e565b906101a08301520390f35b34610495576000366003190112610495576106ef61393a565b4780156107515760008080809360018060a01b038254165af1610710613c9a565b501561071857005b60405162461bcd60e51b815260206004820152601160248201527015da5d1a191c985dd85b0819985a5b1959607a1b6044820152606490fd5b60405162461bcd60e51b81526020600482015260146024820152734e6f2066756e647320746f20776974686472617760601b6044820152606490fd5b3461049557604036600319011261049557600435602435600481101561049557816000526008916020918383526107cd60ff856040600020015416613c44565b6107d5613a15565b600082815284845260409020546001600160a01b0316330361092e5781600052838352600160ff60056040600020015460b01c16610812816135e3565b036108f457610820816135e3565b60038114908180156108e1575b156108ab57610864908360005285855261084e816005604060002001613bee565b83600052858552426007604060002001556135e3565b156108875760005252600560406000200161030061ff0019825416179055600080f35b6000908152919052604090206005018054610100600160b01b031916610100179055005b60405162461bcd60e51b815260048101859052600e60248201526d496e76616c69642073746174757360901b6044820152606490fd5b506108eb816135e3565b6002811461082d565b60405162461bcd60e51b8152600481018490526012602482015271139bc81c195b991a5b99c81c995c5d595cdd60721b6044820152606490fd5b60405162461bcd60e51b8152600481018490526024808201527f4f6e6c79206c616e64206f776e65722063616e2070726f6365737320726571756044820152636573747360e01b6064820152608490fd5b34610495576020366003190112610495576004356001600160401b0381116104955760ff6109ca60206109b781943690600401613718565b816040519382858094519384920161375f565b8101600c81520301902054166040519015158152f35b3461049557600036600319011261049557604051806006549182815260208091019260066000527ff652222313e28459528d920b65115c16c04f3efc82aaedc97be59f3f377c0d3f916000905b828210610a5457610a5085610a44818903826136dc565b604051918291826135ed565b0390f35b835486529485019460019384019390910190610a2d565b34610495576000366003190112610495576020600554604051908152f35b346104955760a0366003190112610495576004356001600160401b03811161049557610ab9903690600401613718565b6024356001600160401b03811161049557610ad8903690600401613718565b9060449182356001600160401b03811161049557610afa903690600401613718565b9260649081356001600160401b03811161049557610b1c903690600401613718565b916084356001600160401b03811161049557610b3c903690600401613718565b91610b45613a15565b610b51865115156139d0565b610b5d875115156139d0565b33600052600760205260ff600660406000200154166114255760ff60405160208181610b8f8c8381519384920161375f565b8101600c81520301902054166113e4578451156113a3578351156113625782511561132a57505060405191610bc3836136c0565b33835260208301938585526040840152856060840152608083015260a0820152600160c08201524260e0820152600161010082015233600052600760205260406000209160018060a01b038251166001600160601b0360a01b845416178355518051906001600160401b038211610f08578190610c43600186015461385a565b601f81116112d7575b50602090601f83116001146112655760009261125a575b50508160011b916000199060031b1c19161760018301555b60408101518051906001600160401b038211610f08578190610ca0600286015461385a565b601f8111611207575b50602090601f83116001146111955760009261118a575b50508160011b916000199060031b1c19161760028301555b60608101518051906001600160401b038211610f08578190610cfd600386015461385a565b601f8111611137575b50602090601f83116001146110c5576000926110ba575b50508160011b916000199060031b1c19161760038301555b60808101518051906001600160401b038211610f08578190610d5a600486015461385a565b601f8111611067575b50602090601f8311600114610ff557600092610fea575b50508160011b916000199060031b1c19161760048301555b60a08101518051906001600160401b038211610f0857610db5600585015461385a565b601f8111610fa3575b50602090601f8311600114610f2957928260089361010093610e3b9796600092610f1e575b50508160011b916000199060031b1c19161760058501555b610e1a60c08201511515600686019060ff801983541691151516179055565b60e081015160078501550151151591019060ff801983541691151516179055565b33600052600b602052604060002060ff199060018282541617905560016040516020818651610e6d8183858b0161375f565b8101600c81520301902091825416179055600554600160401b811015610f08577f92822564bab8864c3a47b34e8d23fbce5c46234eb5da261f94087b995ac0f33b91610ec2826001610ef494016005556137cf565b81546001600160a01b0360039290921b91821b19163390911b17905560408051818152928392610f039284019061381e565b8281036020840152339561381e565b0390a2005b634e487b7160e01b600052604160045260246000fd5b015190508980610de3565b906005850160005260206000209160005b601f1985168110610f8b57508361010093610e3b979693600193600897601f19811610610f72575b505050811b016005850155610dfb565b015160001960f88460031b161c19169055898080610f62565b91926020600181928685015181550194019201610f3a565b600585016000526020600020601f840160051c810160208510610fe3575b601f830160051c82018110610fd7575050610dbe565b60008155600101610fc1565b5080610fc1565b015190508680610d7a565b9250600485016000526020600020906000935b601f198416851061104c576001945083601f19811610611033575b505050811b016004830155610d92565b015160001960f88460031b161c19169055868080611023565b81810151835560209485019460019093019290910190611008565b909150600485016000526020600020601f840160051c8101602085106110b3575b90849392915b601f830160051c820181106110a4575050610d63565b6000815585945060010161108e565b5080611088565b015190508680610d1d565b9250600385016000526020600020906000935b601f198416851061111c576001945083601f19811610611103575b505050811b016003830155610d35565b015160001960f88460031b161c191690558680806110f3565b818101518355602094850194600190930192909101906110d8565b909150600385016000526020600020601f840160051c810160208510611183575b90849392915b601f830160051c82018110611174575050610d06565b6000815585945060010161115e565b5080611158565b015190508680610cc0565b9250600285016000526020600020906000935b601f19841685106111ec576001945083601f198116106111d3575b505050811b016002830155610cd8565b015160001960f88460031b161c191690558680806111c3565b818101518355602094850194600190930192909101906111a8565b909150600285016000526020600020601f840160051c810160208510611253575b90849392915b601f830160051c82018110611244575050610ca9565b6000815585945060010161122e565b5080611228565b015190508680610c63565b9250600185016000526020600020906000935b601f19841685106112bc576001945083601f198116106112a3575b505050811b016001830155610c7b565b015160001960f88460031b161c19169055868080611293565b81810151835560209485019460019093019290910190611278565b909150600185016000526020600020601f840160051c810160208510611323575b90849392915b601f830160051c82018110611314575050610c4c565b600081558594506001016112fe565b50806112f8565b73436974792063616e6e6f7420626520656d70747960601b6040519162461bcd60e51b83526020600484015260146024840152820152fd5b7f506f7374616c20636f64652063616e6e6f7420626520656d70747900000000006040519162461bcd60e51b835260206004840152601b6024840152820152fd5b7f436f6e746163742063616e6e6f7420626520656d7074790000000000000000006040519162461bcd60e51b83526020600484015260176024840152820152fd5b7f456d61696c20616c7265616479207265676973746572656400000000000000006040519162461bcd60e51b83526020600484015260186024840152820152fd5b7f5573657220616c726561647920726567697374657265640000000000000000006040519162461bcd60e51b83526020600484015260176024840152820152fd5b34610495576020366003190112610495576001600160a01b03600435818116908190036104955760005260076020526040600020908154166114aa60018301613894565b916114b760028201613894565b6114c360038301613894565b916115556114d360048301613894565b6115476114e260058501613894565b9161153960ff6006870154169761152b60ff600860078a0154990154169861151d6040519d8e9d8e528d61012090816020820152019061381e565b8c810360408e01529061381e565b908a820360608c015261381e565b9088820360808a015261381e565b9086820360a088015261381e565b92151560c085015260e084015215156101008301520390f35b34610495576000366003190112610495576000546040516001600160a01b039091168152602090f35b34610495576000366003190112610495576006546115b481613cca565b9060009060005b81811061160a5750506115cd81613cca565b9160005b8281106115e65760405180610a5086826135ed565b806115f46116059284613c86565b516115ff8287613c86565b52613c35565b6115d1565b61161381613782565b9054600391821b1c9081600052600860209181835260ff6005818160406000200154851c1693611642856135e3565b60018095149586611682575b505050505050611668575b5061166390613c35565b6115bb565b8361167b916115ff611663949688613c86565b9290611659565b90919293949550866000525260406000200154169081101561047f571486808080808061164e565b34610495576060366003190112610495576001600160401b03600435602435604435838111610495576116e1903690600401613718565b92336000526020916007835261170a604060002060ff60068201541690816118fb575b50613af2565b836000526008835261172660ff60086040600020015416613c44565b61172e613a15565b83600052600883523360018060a01b0360406000205416036118b657806117586009921515613b3e565b61176486511515613b8a565b8460005260088452604060002090600382015501908451908111610f085761178c825461385a565b601f8111611870575b5082601f8211600114611808578190600895966000926117fd575b50508160011b916000199060031b1c19161790555b82600052524260076040600020015533907f42728d0cb399d0ddf82e982cad2153f8c0f9848bc0884e5bbe2cf12bb6c70251600080a3005b0151905086806117b0565b601f1982169583600052846000209660005b8181106118595750916008969791846001959410611840575b505050811b0190556117c5565b015160001960f88460031b161c19169055868080611833565b83830151895560019098019792860192860161181a565b8260005283600020601f830160051c8101918584106118ac575b601f0160051c01905b8181106118a05750611795565b60008155600101611893565b909150819061188a565b60405162461bcd60e51b815260048101849052601a60248201527f4f6e6c79206c616e64206f776e65722063616e207570646174650000000000006044820152606490fd5b60ff9150600801541687611704565b346104955760003660031901126104955761192361393a565b61192b613a15565b600160ff1960025416176002557f62e78cea01bee320cd4e420270b5ea74000d11b0c9f74754ebdbfc544b05a2586020604051338152a1337f81990fd9a5c552b8e3677917d8a03c07678f0d2cb68f88b634aca2022e9bd19f600080a2005b34610495576020366003190112610495576004356001600160a01b038116908190036104955733600052600a6020526119ca60ff60406000205416613a59565b6119d5811515613992565b8060005260076020526119f260ff60066040600020015416613ab0565b6000908152600760205260409020600801805460ff19166001179055005b602080600319360112610495576004353360005260078252611a44604060002060ff6006820154169081611e745750613af2565b806000526008808352611a6060ff826040600020015416613c44565b6001916002835414611e2f5760028355611a78613a15565b8060005281845260ff60056040600020015460b01c1690611a98826135e3565b6003809203611df3578060005282855260018060a01b0391338360056040600020015460101c1603611dae578160005283865280604060002001543403611d6957816000528386528060ff600560406000200154861c16611af8816135e3565b03611d2457948495826000528482528060406000209485541694015494846000526009918284526040600020886000905b611c29575b505050909192809495965060005282526040600020336001600160601b0360a01b8254161781556005810168ffffffffffffffffff60b81b815416905560074291015533600052808252611b86836040600020613c12565b33600052815284604060002001611b9d8154613c35565b9055600080808087875af1611bb0613c9a565b5015611be5577f2dcc677025acfeac3c6b0dedf2599864d3878a9041058fa9d55aa4e47409120a906040519485523394a48055005b6064906040519062461bcd60e51b82526004820152601760248201527f5061796d656e74207472616e73666572206661696c65640000000000000000006044820152fd5b815480821015611d1e5787611c3e8385613806565b905490861b1c14611c595750611c5390613c35565b89611b29565b90939495969798995060001993848201918211611cf257611c8d611c80611ca69385613806565b905490861b1c9184613806565b90919082549060031b91821b91600019901b1916179055565b80548015611d08578380910192611cbd8484613806565b81939154921b1b191690555585600052828452876040600020019081548015611cf25701905590869594939291888080611b2e565b634e487b7160e01b600052601160045260246000fd5b634e487b7160e01b600052603160045260246000fd5b50611b2e565b60405162461bcd60e51b815260048101879052601f60248201527f4c616e64206e6f7420617661696c61626c6520666f72207075726368617365006044820152606490fd5b60405162461bcd60e51b815260048101879052601860248201527f496e636f7272656374207061796d656e7420616d6f756e7400000000000000006044820152606490fd5b60405162461bcd60e51b815260048101879052601a60248201527f4e6f742074686520617070726f766564207265717565737465720000000000006044820152606490fd5b60405162461bcd60e51b815260048101869052601460248201527314995c5d595cdd081b9bdd08185c1c1c9bdd995960621b6044820152606490fd5b60405162461bcd60e51b815260048101859052601f60248201527f5265656e7472616e637947756172643a207265656e7472616e742063616c6c006044820152606490fd5b60ff9150600801541684611704565b613628565b34610495576040366003190112610495576004356001600160401b0381116104955736602382011215610495578060040135611ec381613843565b90611ed160405192836136dc565b8082526020908183019360249485600593841b830101913683116104955786859101915b8383106121115750505050833591600383101591826104955733600052600a825260ff611f288160406000205416613a59565b611f30613a15565b8551156120d95760328651116120955760005b865181101561209357611f568188613c86565b5180600052600880865287856040600020868482015416611f85575b5050505050611f8090613c35565b611f43565b611f90929101613bd6565b81600052808652864260076040600020015561207e57600188036120155790611f809291816000528652604060002085810161010061ff001982541617905560018060a01b03905416907f86e9aca6cb4ad62ef91751d2c0216c708524295fe973127e5ff6a58cfa49d46287604051612009818d6135d6565ba35b9089878582611f72565b955090611f80916000966002891461202f575b505061200b565b600082815290875260408120868101805461ff0019169055546001600160a01b031691907f7c557f0ad60bff2708eadd0f87c51ff048f5779dd283cc4b208fae0a6c2eee3f9080a38980612028565b89634e487b7160e01b60005260216004526000fd5b005b60405162461bcd60e51b8152600481018490526017818901527f546f6f206d616e79206c616e647320696e2062617463680000000000000000006044820152606490fd5b60405162461bcd60e51b81526004810184905260118189015270139bc81b185b991cc81c1c9bdd9a591959607a1b6044820152606490fd5b8235815291810191859101611ef5565b34610495576020806003193601126104955760043590336000526007815261215b604060002060ff6006820154169081611e745750613af2565b8160005260089081815261217860ff836040600020015416613c44565b612180613a15565b600083815282825260409020546001600160a01b039081163314612346578360005282825260ff60056040600020015416600381101561047f576001036123015783600052828252600160ff600560406000200154851c166121e1816135e3565b036122c7578360005282825260056040600020015460101c166122785760008381529190526040902060058101805462010000600160b01b0319163360101b62010000600160b01b0316178155805461ff0060ff60b01b011916610200600160b01b01179055426007919091015533907f3479756a85e48b0413170ec62c7738cec0cd99ca916410d5f6cfe5653f27a8b5600080a3005b6084906040519062461bcd60e51b82526004820152602260248201527f4c616e6420616c72656164792068617320612070656e64696e672072657175656044820152611cdd60f21b6064820152fd5b60405162461bcd60e51b81526004810183905260126024820152714c616e64206e6f7420617661696c61626c6560701b6044820152606490fd5b60405162461bcd60e51b815260048101839052601f60248201527f4c616e64206e6f7420617070726f76656420627920676f7665726e6d656e74006044820152606490fd5b60405162461bcd60e51b815260048101839052601c60248201527f43616e6e6f74207265717565737420796f7572206f776e206c616e64000000006044820152606490fd5b34610495576000366003190112610495576123a461393a565b600080546001600160a01b0319811682556001600160a01b03167f8be0079c531659141344cd1fd0a4f28419497f9722a3daafe3b4186f6b6457e08280a3005b3461049557600036600319011261049557602047604051908152f35b3461049557602080600319360112610495576004356001600160a01b0381811692918390036104955760405192612436846136c0565b60008452606090818486015281604086015281808601528160808601528160a086015260c085016000905260e085016000905261010080950160009052806000526007845260406000206006015460ff1661249090613ab0565b6000526007835260406000206040519485916124ab836136c0565b8054851683526124bd60018201613894565b838701908152936124d060028301613894565b60408501908152946124e460038401613894565b8583019081526124f660048501613894565b608087019081529061250a60058601613894565b9260a088019384528a600687015460ff169a60c08a019b15158c528860078901549860e08c01998a526008015460ff169a019915158a526040519d8e9d8e525116908c01525197610120988960408d01526101408c016125699161381e565b905190601f1995868d830301908d01526125829161381e565b905190848b82030160808c01526125989161381e565b905190838a82030160a08b01526125ae9161381e565b9051918882030160c08901526125c39161381e565b9451151560e08701525190850152511515908301520390f35b346104955760203660031901126104955760043560065481101561049557612605602091613782565b90546040519160031b1c8152f35b34610495576000366003190112610495576003546000198101908111611cf257602090604051908152f35b3461049557600036600319011261049557602060ff600254166040519015158152f35b34610495576020366003190112610495576004356005548110156104955761268a6020916137cf565b905460405160039290921b1c6001600160a01b03168152f35b346104955760a0366003190112610495576004356001600160401b038111610495576126d3903690600401613718565b6024356001600160401b038111610495576126f2903690600401613718565b906064356001600160401b03811161049557612712903690600401613718565b90336000526007602052612738604060002060ff6006820154169081612df15750613af2565b612740613a15565b61274c815115156139d0565b612758835115156139d0565b6127656044351515613b3e565b60ff604051602081865161277c8183858b0161375f565b8101600d8152030190205416612dac5760843515612d67576127a082511515613b8a565b6003549160018301600355604051916127b8836136a4565b33835260208301528360408301526044356060830152826080830152600060a0830152600060c0830152600060e08301526000610100830152426101208301524261014083015260016101608301526101808201526084356101a082015281600052600860205260406000209060018060a01b038151166001600160601b0360a01b83541617825560208101518051906001600160401b038211610f08578190612865600186015461385a565b601f8111612d14575b50602090601f8311600114612ca257600092612c97575b50508160011b916000199060031b1c19161760018301555b60408101518051906001600160401b038211610f085781906128c2600286015461385a565b601f8111612c44575b50602090601f8311600114612bd257600092612bc7575b50508160011b916000199060031b1c19161760028301555b60608101516003830155608081015160048301556005820160a082015190600382101561047f5761292e6129909282613bd6565b60c083015161293c816135e3565b612945816135e3565b815460e0850151610100600160b01b031990911660089290921b61ff00169190911760109190911b62010000600160b01b03161781556101008301519061298b826135e3565b613bee565b610120810151600683015561014081015160078301556129c66101608201511515600884019060ff801983541691151516179055565b6101808101518051906001600160401b038211610f08576129ea600985015461385a565b601f8111612b80575b50602090601f8311600114612b0c579180600a94926101a094600092612b01575b50508160011b916000199060031b1c19161760098501555b0151910155336000526009602052612a48816040600020613c12565b3360005260096020526001604060002001612a638154613c35565b905560065491600160401b831015610f0857612a8b82611c8d85600160209701600655613782565b60405183818351612a9f818385880161375f565b8101600d815203019020600160ff19825416179055817f09f87bd638cbe9814396205461896d192bb615baa655b37f43ef8414a75b7fd5612aeb6040519360408552604085019061381e565b92604435868201528033940390a3604051908152f35b015190508880612a14565b90601f198316916009860160005260206000209260005b818110612b6857509260019285926101a096600a989610612b4f575b505050811b016009850155612a2c565b015160001960f88460031b161c19169055888080612b3f565b92936020600181928786015181550195019301612b23565b600985016000526020600020601f840160051c810160208510612bc0575b601f830160051c82018110612bb45750506129f3565b60008155600101612b9e565b5080612b9e565b0151905086806128e2565b9250600285016000526020600020906000935b601f1984168510612c29576001945083601f19811610612c10575b505050811b0160028301556128fa565b015160001960f88460031b161c19169055868080612c00565b81810151835560209485019460019093019290910190612be5565b909150600285016000526020600020601f840160051c810160208510612c90575b90849392915b601f830160051c82018110612c815750506128cb565b60008155859450600101612c6b565b5080612c65565b015190508680612885565b9250600185016000526020600020906000935b601f1984168510612cf9576001945083601f19811610612ce0575b505050811b01600183015561289d565b015160001960f88460031b161c19169055868080612cd0565b81810151835560209485019460019093019290910190612cb5565b909150600185016000526020600020601f840160051c810160208510612d60575b90849392915b601f830160051c82018110612d5157505061286e565b60008155859450600101612d3b565b5080612d35565b60405162461bcd60e51b815260206004820152601b60248201527f41726561206d7573742062652067726561746572207468616e203000000000006044820152606490fd5b60405162461bcd60e51b815260206004820152601f60248201527f4c616e64206164647265737320616c72656164792072656769737465726564006044820152606490fd5b60ff9150600801541685611704565b34610495576020366003190112610495576004356001600160401b0381116104955760ff612e3860206109b781943690600401613718565b8101600d81520301902054166040519015158152f35b3461049557600036600319011261049557612e6761393a565b60025460ff811615612ecc5760ff19166002557f5db9ee0a495bf2e6ff9c91a7834c1ba4fdd244a5e8aa4e537bd38aeae4b073aa6020604051338152a1337f5b65b0c1363b3003db9bcc5e1fd8805a6d6bf5bf6dc9d3431ee4494cd7d11766600080a2005b60405162461bcd60e51b815260206004820152601460248201527314185d5cd8589b194e881b9bdd081c185d5cd95960621b6044820152606490fd5b3461049557600036600319011261049557600654612f2581613cca565b9060009060005b818110612f6a575050612f3e81613cca565b9160005b828110612f575760405180610a5086826135ed565b806115f4612f659284613c86565b612f42565b612f7381613782565b9054600391821b1c9081600052600860205260ff600560406000200154169081101561047f5715612fae575b50612fa990613c35565b612f2c565b83612fc1916115ff612fa9949688613c86565b9290612f9f565b34610495576020366003190112610495576004356001600160a01b0381169081900361049557612ff661393a565b613001811515613992565b80600052600a60205260ff60406000205416156130555780600052600a602052604060002060ff1981541690557f7fa841629ce957672b096dcc2d095fae8c1d20dd7d1292ce1f9789f0a8d1e19c600080a2005b60405162461bcd60e51b815260206004820152601260248201527113d9999a58da585b081b9bdd08199bdd5b9960721b6044820152606490fd5b34610495576020366003190112610495576004356001600160a01b038116908190036104955760005260096020526020600160406000200154604051908152f35b34610495576020366003190112610495576004356001600160a01b038116908190036104955733600052600a60205261311060ff60406000205416613a59565b61311b811515613992565b80600052600760205261313860ff60066040600020015416613ab0565b806000526007602052600860406000200160ff1981541690557f5554feec4e87bc4eba14bd62f71df68156f97d26128616fbc27d28e33b35a6b4600080a2005b3461049557602080600319360112610495576004359081600052600881526131aa60ff60086040600020015416613c44565b6131b2613a15565b600082815260088252604090206005015460101c6001600160a01b0316330361326d578160005260088152600160ff60056040600020015460b01c166131f7816135e3565b036132295760009182526008905260409020600581018054610100600160b81b03191661010017905542600790910155005b6064906040519062461bcd60e51b82526004820152601c60248201527f4e6f2070656e64696e67207265717565737420746f2063616e63656c000000006044820152fd5b6064906040519062461bcd60e51b82526004820152601960248201527f4f6e6c79207265717565737465722063616e2063616e63656c000000000000006044820152fd5b34610495576020366003190112610495576004356001600160a01b038116908190036104955760005260076020526020604060002060ff6006820154169081613300575b506040519015158152f35b60ff91506008015416826132f5565b346104955760403660031901126104955760243560043560038210156104955733600052600a60205261334960ff60406000205416613a59565b80600052600860205261336660ff60086040600020015416613c44565b61336e613a15565b806000526008602052613388826005604060002001613bd6565b8060005260086020526040600020426007820155600183146000146133fc5760058101805461ff001916610100179055546040516001600160a01b0391909116927f86e9aca6cb4ad62ef91751d2c0216c708524295fe973127e5ff6a58cfa49d462916020916133f99082906135d6565ba3005b909160021461340757005b60058101805461ff0019169055546001600160a01b0316907f7c557f0ad60bff2708eadd0f87c51ff048f5779dd283cc4b208fae0a6c2eee3f600080a3005b34610495576020366003190112610495576004356001600160a01b038116908190036104955761347461393a565b61347f811515613992565b80600052600a60205260ff604060002054166134d55780600052600a6020526040600020600160ff198254161790557facfa9b24760e34ca533e28b821ebae7994d05ed195781892fd054f15321cfea5600080a2005b60405162461bcd60e51b815260206004820152601660248201527513d9999a58da585b08185b1c9958591e48185919195960521b6044820152606490fd5b34610495576020366003190112610495576004356001600160a01b0381169081900361049557600052600b602052602060ff604060002054166040519015158152f35b346104955760203660031901126104955760043580600052600860205261358760ff60086040600020015416613c44565b6000526008602052606060ff600560406000200154818160081c166135b8838360b01c1692604051948591166135d6565b6135c1816135e3565b60208301526135cf816135e3565b6040820152f35b90600382101561047f5752565b6004111561047f57565b6020908160408183019282815285518094520193019160005b828110613614575050505090565b835185529381019392810192600101613606565b3461049557602080600319360112610495576004356001600160a01b038116908190036104955760005260098152604060002090604051908181845491828152019360005281600020916000905b82821061368d57610a5085610a44818903826136dc565b835486529485019460019384019390910190613676565b6101c081019081106001600160401b03821117610f0857604052565b61012081019081106001600160401b03821117610f0857604052565b90601f801991011681019081106001600160401b03821117610f0857604052565b6001600160401b038111610f0857601f01601f191660200190565b81601f820112156104955780359061372f826136fd565b9261373d60405194856136dc565b8284526020838301011161049557816000926020809301838601378301015290565b60005b8381106137725750506000910152565b8181015183820152602001613762565b6006548110156137b95760066000527ff652222313e28459528d920b65115c16c04f3efc82aaedc97be59f3f377c0d3f0190600090565b634e487b7160e01b600052603260045260246000fd5b6005548110156137b95760056000527f036b6384b5eca791c62761152d0c79bb0604c104a5fb6f4eb0703f3154bb3db00190600090565b80548210156137b95760005260206000200190600090565b906020916138378151809281855285808601910161375f565b601f01601f1916010190565b6001600160401b038111610f085760051b60200190565b90600182811c9216801561388a575b602083101461387457565b634e487b7160e01b600052602260045260246000fd5b91607f1691613869565b90604051918260008254926138a88461385a565b90818452600194858116908160001461391757506001146138d4575b50506138d2925003836136dc565b565b9093915060005260209081600020936000915b8183106138ff5750506138d2935082010138806138c4565b855488840185015294850194879450918301916138e7565b9150506138d294506020925060ff191682840152151560051b82010138806138c4565b6000546001600160a01b0316330361394e57565b606460405162461bcd60e51b815260206004820152602060248201527f4f776e61626c653a2063616c6c6572206973206e6f7420746865206f776e65726044820152fd5b1561399957565b60405162461bcd60e51b815260206004820152600f60248201526e496e76616c6964206164647265737360881b6044820152606490fd5b156139d757565b60405162461bcd60e51b8152602060048201526016602482015275537472696e672063616e6e6f7420626520656d70747960501b6044820152606490fd5b60ff60025416613a2157565b60405162461bcd60e51b815260206004820152601060248201526f14185d5cd8589b194e881c185d5cd95960821b6044820152606490fd5b15613a6057565b60405162461bcd60e51b815260206004820152602260248201527f4e6f7420617574686f72697a656420676f7665726e6d656e74206f6666696369604482015261185b60f21b6064820152608490fd5b15613ab757565b60405162461bcd60e51b8152602060048201526013602482015272155cd95c88191bd95cc81b9bdd08195e1a5cdd606a1b6044820152606490fd5b15613af957565b60405162461bcd60e51b815260206004820152601f60248201527f55736572206e6f742072656769737465726564206f7220696e616374697665006044820152606490fd5b15613b4557565b60405162461bcd60e51b815260206004820152601c60248201527f5072696365206d7573742062652067726561746572207468616e2030000000006044820152606490fd5b15613b9157565b60405162461bcd60e51b815260206004820152601b60248201527f4465736372697074696f6e2063616e6e6f7420626520656d70747900000000006044820152606490fd5b90600381101561047f5760ff80198354169116179055565b90613bf8816135e3565b815460ff60b01b191660b09190911b60ff60b01b16179055565b90815491600160401b831015610f085782611c8d9160016138d295018155613806565b6000198114611cf25760010190565b15613c4b57565b60405162461bcd60e51b815260206004820152601360248201527213185b9908191bd95cc81b9bdd08195e1a5cdd606a1b6044820152606490fd5b80518210156137b95760209160051b010190565b3d15613cc5573d90613cab826136fd565b91613cb960405193846136dc565b82523d6000602084013e565b606090565b90613cd482613843565b613ce160405191826136dc565b8281528092613cf2601f1991613843565b019060203691013756fea2646970667358221220ec56b4be335f1a0067fa9fb7c60e5075fad87db6fda91f3ba982fa06f8c6f6fd64736f6c63430008130033",
  "immutableReferences": {},
  "source": "// SPDX-License-Identifier: MIT\npragma solidity ^0.8.19;\n\nimport \"@openzeppelin/contracts/access/Ownable.sol\";\nimport \"@openzeppelin/contracts/security/ReentrancyGuard.sol\";\nimport \"@openzeppelin/contracts/security/Pausable.sol\";\nimport \"@openzeppelin/contracts/utils/Counters.sol\";\n\n/**\n * @title LandRegistry\n * @dev A comprehensive land registry system with government oversight and secure trading\n * @author Ardhi Registries Team\n */\ncontract LandRegistry is Ownable, ReentrancyGuard, Pausable {\n    using Counters for Counters.Counter;\n\n    // Structs\n    struct User {\n        address userAddress;\n        string name;\n        string contact;\n        string email;\n        string postalCode;\n        string city;\n        bool exists;\n        uint256 registrationTime;\n        bool isActive;\n    }\n\n    struct LandDetails {\n        address payable owner;\n        string ipfsHash;\n        string landAddress;\n        uint256 price;\n        uint256 landId;\n        ApprovalStatus governmentApproval;\n        AvailabilityStatus availability;\n        address requester;\n        RequestStatus requestStatus;\n        uint256 registrationTime;\n        uint256 lastUpdated;\n        bool exists;\n        string description;\n        uint256 area; // in square meters\n    }\n\n    struct Profiles {\n        uint256[] assetList;\n        uint256 totalLands;\n    }\n\n    // Enums for better type safety\n    enum ApprovalStatus {\n        Pending,\n        Approved,\n        Rejected\n    }\n\n    enum AvailabilityStatus {\n        NotAvailable,\n        Available,\n        Requested,\n        ApprovedForPurchase\n    }\n\n    enum RequestStatus {\n        Default,\n        Pending,\n        Rejected,\n        Approved\n    }\n\n    // State variables\n    Counters.Counter private _landCounter;\n    Counters.Counter private _userCounter;\n    \n    // Arrays for iteration\n    address[] public userAddresses;\n    uint256[] public landAssets;\n    \n    // Mappings\n    mapping(address => User) public users;\n    mapping(uint256 => LandDetails) public lands;\n    mapping(address => Profiles) public userProfiles;\n    mapping(address => bool) public governmentOfficials;\n    mapping(address => bool) public registeredUsers;\n    mapping(string => bool) public usedEmails;\n    mapping(string => bool) public usedLandAddresses;\n\n    // Events\n    event UserRegistered(address indexed userAddress, string name, string email);\n    event UserDeactivated(address indexed userAddress);\n    event LandRegistered(uint256 indexed landId, address indexed owner, string landAddress, uint256 price);\n    event LandRequested(uint256 indexed landId, address indexed requester);\n    event LandApproved(uint256 indexed landId, address indexed owner, ApprovalStatus status);\n    event LandRejected(uint256 indexed landId, address indexed owner);\n    event LandSold(uint256 indexed landId, address indexed from, address indexed to, uint256 price);\n    event LandUpdated(uint256 indexed landId, address indexed owner);\n    event GovernmentOfficialAdded(address indexed official);\n    event GovernmentOfficialRemoved(address indexed official);\n    event ContractPaused(address indexed by);\n    event ContractUnpaused(address indexed by);\n\n    // Modifiers\n    modifier onlyRegisteredUser() {\n        require(users[msg.sender].exists && users[msg.sender].isActive, \"User not registered or inactive\");\n        _;\n    }\n\n    modifier onlyGovernmentOfficial() {\n        require(governmentOfficials[msg.sender], \"Not authorized government official\");\n        _;\n    }\n\n    modifier landExists(uint256 _landId) {\n        require(lands[_landId].exists, \"Land does not exist\");\n        _;\n    }\n\n    modifier validAddress(address _address) {\n        require(_address != address(0), \"Invalid address\");\n        _;\n    }\n\n    modifier validString(string memory _str) {\n        require(bytes(_str).length > 0, \"String cannot be empty\");\n        _;\n    }\n\n    modifier validPrice(uint256 _price) {\n        require(_price > 0, \"Price must be greater than 0\");\n        _;\n    }\n\n    constructor() {\n        // Initialize counters\n        _landCounter.increment(); // Start from 1\n        _userCounter.increment(); // Start from 1\n    }\n\n    // Government functions\n    function addGovernmentOfficial(address _official) \n        external \n        onlyOwner \n        validAddress(_official) \n    {\n        require(!governmentOfficials[_official], \"Official already added\");\n        governmentOfficials[_official] = true;\n        emit GovernmentOfficialAdded(_official);\n    }\n\n    function removeGovernmentOfficial(address _official) \n        external \n        onlyOwner \n        validAddress(_official) \n    {\n        require(governmentOfficials[_official], \"Official not found\");\n        governmentOfficials[_official] = false;\n        emit GovernmentOfficialRemoved(_official);\n    }\n\n    function isGovernmentOfficial(address _official) external view returns (bool) {\n        return governmentOfficials[_official];\n    }\n\n    // User registration\n    function registerUser(\n        string memory _name,\n        string memory _contact,\n        string memory _email,\n        string memory _postalCode,\n        string memory _city\n    ) external whenNotPaused validString(_name) validString(_email) {\n        require(!users[msg.sender].exists, \"User already registered\");\n        require(!usedEmails[_email], \"Email already registered\");\n        require(bytes(_contact).length > 0, \"Contact cannot be empty\");\n        require(bytes(_postalCode).length > 0, \"Postal code cannot be empty\");\n        require(bytes(_city).length > 0, \"City cannot be empty\");\n        \n        users[msg.sender] = User({\n            userAddress: msg.sender,\n            name: _name,\n            contact: _contact,\n            email: _email,\n            postalCode: _postalCode,\n            city: _city,\n            exists: true,\n            registrationTime: block.timestamp,\n            isActive: true\n        });\n        \n        registeredUsers[msg.sender] = true;\n        usedEmails[_email] = true;\n        userAddresses.push(msg.sender);\n        \n        emit UserRegistered(msg.sender, _name, _email);\n    }\n\n    function deactivateUser(address _userAddress) \n        external \n        onlyGovernmentOfficial \n        validAddress(_userAddress) \n    {\n        require(users[_userAddress].exists, \"User does not exist\");\n        users[_userAddress].isActive = false;\n        emit UserDeactivated(_userAddress);\n    }\n\n    function reactivateUser(address _userAddress) \n        external \n        onlyGovernmentOfficial \n        validAddress(_userAddress) \n    {\n        require(users[_userAddress].exists, \"User does not exist\");\n        users[_userAddress].isActive = true;\n    }\n\n    function getUser(address _userAddress) external view returns (User memory) {\n        require(users[_userAddress].exists, \"User does not exist\");\n        return users[_userAddress];\n    }\n\n    // Land registration\n    function registerLand(\n        string memory _ipfsHash,\n        string memory _landAddress,\n        uint256 _price,\n        string memory _description,\n        uint256 _area\n    ) external onlyRegisteredUser whenNotPaused validString(_ipfsHash) validString(_landAddress) validPrice(_price) returns (uint256) {\n        require(!usedLandAddresses[_landAddress], \"Land address already registered\");\n        require(_area > 0, \"Area must be greater than 0\");\n        require(bytes(_description).length > 0, \"Description cannot be empty\");\n        \n        uint256 landId = _landCounter.current();\n        _landCounter.increment();\n        \n        lands[landId] = LandDetails({\n            owner: payable(msg.sender),\n            ipfsHash: _ipfsHash,\n            landAddress: _landAddress,\n            price: _price,\n            landId: landId,\n            governmentApproval: ApprovalStatus.Pending,\n            availability: AvailabilityStatus.NotAvailable,\n            requester: address(0),\n            requestStatus: RequestStatus.Default,\n            registrationTime: block.timestamp,\n            lastUpdated: block.timestamp,\n            exists: true,\n            description: _description,\n            area: _area\n        });\n        \n        userProfiles[msg.sender].assetList.push(landId);\n        userProfiles[msg.sender].totalLands++;\n        landAssets.push(landId);\n        usedLandAddresses[_landAddress] = true;\n        \n        emit LandRegistered(landId, msg.sender, _landAddress, _price);\n        return landId;\n    }\n\n    function updateLandDetails(\n        uint256 _landId,\n        uint256 _newPrice,\n        string memory _newDescription\n    ) external onlyRegisteredUser landExists(_landId) whenNotPaused {\n        require(lands[_landId].owner == msg.sender, \"Only land owner can update\");\n        require(_newPrice > 0, \"Price must be greater than 0\");\n        require(bytes(_newDescription).length > 0, \"Description cannot be empty\");\n        \n        lands[_landId].price = _newPrice;\n        lands[_landId].description = _newDescription;\n        lands[_landId].lastUpdated = block.timestamp;\n        \n        emit LandUpdated(_landId, msg.sender);\n    }\n\n    function getLandDetails(uint256 _landId) external view landExists(_landId) returns (LandDetails memory) {\n        return lands[_landId];\n    }\n\n    function getUserAssets(address _userAddress) external view returns (uint256[] memory) {\n        return userProfiles[_userAddress].assetList;\n    }\n\n    function getAllLands() external view returns (uint256[] memory) {\n        return landAssets;\n    }\n\n    // Government approval functions\n    function approveLand(uint256 _landId, ApprovalStatus _approvalStatus) \n        external \n        onlyGovernmentOfficial \n        landExists(_landId) \n        whenNotPaused \n    {\n        lands[_landId].governmentApproval = _approvalStatus;\n        lands[_landId].lastUpdated = block.timestamp;\n        \n        if (_approvalStatus == ApprovalStatus.Approved) {\n            lands[_landId].availability = AvailabilityStatus.Available;\n            emit LandApproved(_landId, lands[_landId].owner, _approvalStatus);\n        } else if (_approvalStatus == ApprovalStatus.Rejected) {\n            lands[_landId].availability = AvailabilityStatus.NotAvailable;\n            emit LandRejected(_landId, lands[_landId].owner);\n        }\n    }\n\n    function batchApproveLands(uint256[] memory _landIds, ApprovalStatus _approvalStatus) \n        external \n        onlyGovernmentOfficial \n        whenNotPaused \n    {\n        require(_landIds.length > 0, \"No lands provided\");\n        require(_landIds.length <= 50, \"Too many lands in batch\");\n        \n        for (uint256 i = 0; i < _landIds.length; i++) {\n            uint256 landId = _landIds[i];\n            if (lands[landId].exists) {\n                lands[landId].governmentApproval = _approvalStatus;\n                lands[landId].lastUpdated = block.timestamp;\n                \n                if (_approvalStatus == ApprovalStatus.Approved) {\n                    lands[landId].availability = AvailabilityStatus.Available;\n                    emit LandApproved(landId, lands[landId].owner, _approvalStatus);\n                } else if (_approvalStatus == ApprovalStatus.Rejected) {\n                    lands[landId].availability = AvailabilityStatus.NotAvailable;\n                    emit LandRejected(landId, lands[landId].owner);\n                }\n            }\n        }\n    }\n\n    // Land request and purchase functions\n    function requestLand(uint256 _landId) external onlyRegisteredUser landExists(_landId) whenNotPaused {\n        require(lands[_landId].owner != msg.sender, \"Cannot request your own land\");\n        require(lands[_landId].governmentApproval == ApprovalStatus.Approved, \"Land not approved by government\");\n        require(lands[_landId].availability == AvailabilityStatus.Available, \"Land not available\");\n        require(lands[_landId].requester == address(0), \"Land already has a pending request\");\n        \n        lands[_landId].requester = msg.sender;\n        lands[_landId].availability = AvailabilityStatus.Requested;\n        lands[_landId].requestStatus = RequestStatus.Pending;\n        lands[_landId].lastUpdated = block.timestamp;\n        \n        emit LandRequested(_landId, msg.sender);\n    }\n\n    function processLandRequest(uint256 _landId, RequestStatus _status) \n        external \n        landExists(_landId) \n        whenNotPaused \n    {\n        require(lands[_landId].owner == msg.sender, \"Only land owner can process requests\");\n        require(lands[_landId].requestStatus == RequestStatus.Pending, \"No pending request\");\n        require(_status == RequestStatus.Approved || _status == RequestStatus.Rejected, \"Invalid status\");\n        \n        lands[_landId].requestStatus = _status;\n        lands[_landId].lastUpdated = block.timestamp;\n        \n        if (_status == RequestStatus.Approved) {\n            lands[_landId].availability = AvailabilityStatus.ApprovedForPurchase;\n        } else {\n            lands[_landId].availability = AvailabilityStatus.Available;\n            lands[_landId].requester = address(0);\n        }\n    }\n\n    function cancelLandRequest(uint256 _landId) external landExists(_landId) whenNotPaused {\n        require(lands[_landId].requester == msg.sender, \"Only requester can cancel\");\n        require(lands[_landId].requestStatus == RequestStatus.Pending, \"No pending request to cancel\");\n        \n        lands[_landId].requester = address(0);\n        lands[_landId].availability = AvailabilityStatus.Available;\n        lands[_landId].requestStatus = RequestStatus.Default;\n        lands[_landId].lastUpdated = block.timestamp;\n    }\n\n    function purchaseLand(uint256 _landId) \n        external \n        payable \n        onlyRegisteredUser \n        landExists(_landId) \n        nonReentrant \n        whenNotPaused \n    {\n        require(lands[_landId].requestStatus == RequestStatus.Approved, \"Request not approved\");\n        require(lands[_landId].requester == msg.sender, \"Not the approved requester\");\n        require(msg.value == lands[_landId].price, \"Incorrect payment amount\");\n        require(lands[_landId].availability == AvailabilityStatus.ApprovedForPurchase, \"Land not available for purchase\");\n        \n        address previousOwner = lands[_landId].owner;\n        uint256 price = lands[_landId].price;\n        \n        // Transfer ownership\n        _removeOwnership(previousOwner, _landId);\n        lands[_landId].owner = payable(msg.sender);\n        lands[_landId].requester = address(0);\n        lands[_landId].requestStatus = RequestStatus.Default;\n        lands[_landId].governmentApproval = ApprovalStatus.Pending;\n        lands[_landId].availability = AvailabilityStatus.NotAvailable;\n        lands[_landId].lastUpdated = block.timestamp;\n        userProfiles[msg.sender].assetList.push(_landId);\n        userProfiles[msg.sender].totalLands++;\n        \n        // Transfer payment\n        (bool success, ) = previousOwner.call{value: price}(\"\");\n        require(success, \"Payment transfer failed\");\n        \n        emit LandSold(_landId, previousOwner, msg.sender, price);\n    }\n\n    function _removeOwnership(address _previousOwner, uint256 _landId) private {\n        uint256[] storage assets = userProfiles[_previousOwner].assetList;\n        for (uint256 i = 0; i < assets.length; i++) {\n            if (assets[i] == _landId) {\n                assets[i] = assets[assets.length - 1];\n                assets.pop();\n                userProfiles[_previousOwner].totalLands--;\n                break;\n            }\n        }\n    }\n\n    // Utility functions\n    function pause() external onlyOwner {\n        _pause();\n        emit ContractPaused(msg.sender);\n    }\n\n    function unpause() external onlyOwner {\n        _unpause();\n        emit ContractUnpaused(msg.sender);\n    }\n\n    function getLandCount() external view returns (uint256) {\n        return _landCounter.current() - 1; // Subtract 1 because we start from 1\n    }\n\n    function getUserCount() external view returns (uint256) {\n        return userAddresses.length;\n    }\n\n    function getLandsByOwner(address _owner) external view returns (uint256[] memory) {\n        return userProfiles[_owner].assetList;\n    }\n\n    function getAvailableLands() external view returns (uint256[] memory) {\n        uint256[] memory availableLands = new uint256[](landAssets.length);\n        uint256 count = 0;\n        \n        for (uint256 i = 0; i < landAssets.length; i++) {\n            uint256 landId = landAssets[i];\n            if (lands[landId].availability == AvailabilityStatus.Available && \n                lands[landId].governmentApproval == ApprovalStatus.Approved) {\n                availableLands[count] = landId;\n                count++;\n            }\n        }\n        \n        // Resize array to actual count\n        uint256[] memory result = new uint256[](count);\n        for (uint256 i = 0; i < count; i++) {\n            result[i] = availableLands[i];\n        }\n        \n        return result;\n    }\n\n    function getPendingApprovalLands() external view returns (uint256[] memory) {\n        uint256[] memory pendingLands = new uint256[](landAssets.length);\n        uint256 count = 0;\n        \n        for (uint256 i = 0; i < landAssets.length; i++) {\n            uint256 landId = landAssets[i];\n            if (lands[landId].governmentApproval == ApprovalStatus.Pending) {\n                pendingLands[count] = landId;\n                count++;\n            }\n        }\n        \n        // Resize array to actual count\n        uint256[] memory result = new uint256[](count);\n        for (uint256 i = 0; i < count; i++) {\n            result[i] = pendingLands[i];\n        }\n        \n        return result;\n    }\n\n    function isUserRegistered(address _user) external view returns (bool) {\n        return users[_user].exists && users[_user].isActive;\n    }\n\n    function getLandStatus(uint256 _landId) external view landExists(_landId) returns (\n        ApprovalStatus governmentApproval,\n        AvailabilityStatus availability,\n        RequestStatus requestStatus\n    ) {\n        return (\n            lands[_landId].governmentApproval,\n            lands[_landId].availability,\n            lands[_landId].requestStatus\n        );\n    }\n\n    // Emergency functions\n    function emergencyWithdraw() external onlyOwner {\n        uint256 balance = address(this).balance;\n        require(balance > 0, \"No funds to withdraw\");\n        \n        (bool success, ) = payable(owner()).call{value: balance}(\"\");\n        require(success, \"Withdrawal failed\");\n    }\n\n    function getContractBalance() external view returns (uint256) {\n        return address(this).balance;\n    }\n}\n",
  "sourcePath": "/home/ryan/Documents/me/Ardhi-Registries/src/contracts/LandRegistry.sol",
  "compiler": {
    "name": "solc",
    "version": "0.8.19+commit.7dd6d404.Emscripten.clang"
  },
  "schemaVersion": "3.4.16",
  "updatedAt": "2025-09-11T08:35:45.032Z",
  "networkType": "ethereum",
  "devdoc": {
    "author": "Ardhi Registries Team",
    "details": "A comprehensive land registry system with government oversight and secure trading",
    "events": {
      "Paused(address)": {
        "details": "Emitted when the pause is triggered by `account`."
      },
      "Unpaused(address)": {
        "details": "Emitted when the pause is lifted by `account`."
      }
    },
    "kind": "dev",
    "methods": {
      "owner()": {
        "details": "Returns the address of the current owner."
      },
      "paused()": {
        "details": "Returns true if the contract is paused, and false otherwise."
      },
      "renounceOwnership()": {
        "details": "Leaves the contract without owner. It will not be possible to call `onlyOwner` functions. Can only be called by the current owner. NOTE: Renouncing ownership will leave the contract without an owner, thereby disabling any functionality that is only available to the owner."
      },
      "transferOwnership(address)": {
        "details": "Transfers ownership of the contract to a new account (`newOwner`). Can only be called by the current owner."
      }
    },
    "title": "LandRegistry",
    "version": 1
  },
  "userdoc": {
    "kind": "user",
    "methods": {},
    "version": 1
  }
}